:020000040000FA
:0400000037EF00F0E6
:100008003D82D9CF31F0DACF32F00E01CEA70FEF13
:1000180000F011EF00F013EF00F029EC05F00E01ED
:10002800CEA319EF00F01BEF00F01DEF00F02DEC50
:1000380005F00E01CAA923EF00F025EF00F027EF25
:1000480000F01EEC05F00E01CDA12DEF00F02FEF12
:1000580000F031EF00F0A4EC02F032C0DAFF31C05A
:10006800D9FF3D921100ECEF04F0100E2C6E4AEF10
:1000780000F0020E2C261F0E2C6445EF00F047EF0F
:1000880000F04AEF00F0000E61EF01F02C5017EC81
:1000980005F00009D8A453EF00F055EF00F03DEF4C
:1000A80000F02D50BFEC03F00009D8A45EEF00F07B
:1000B80060EF00F062EF00F047EF00F03C0E30EC2C
:1000C80004F00009D8A46BEF00F06DEF00F06FEFBB
:1000D80000F047EF00F004EC05F02D500109336EF5
:1000E800010E19EC02F00009D8A47DEF00F07FEFB3
:1000F80000F081EF00F047EF00F025C01EF0000E81
:10010800336E020E19EC02F00009D8A48EEF00F04D
:1001180090EF00F092EF00F047EF00F025C01FF0DD
:10012800000E336E020E19EC02F00009D8A49FEFFE
:1001380000F0A1EF00F0A3EF00F047EF00F025C0BA
:1001480020F0000E336E030E19EC02F00009D8A45B
:10015800B0EF00F0B2EF00F0B4EF00F047EF00F0BE
:1001680025C021F02D50BFEC03F00009D8A4BFEF43
:1001780000F0C1EF00F0C3EF00F047EF00F0220EEF
:1001880030EC04F00009D8A4CCEF00F0CEEF00F07A
:10019800D0EF00F047EF00F0D8902C3030EC04F0AE
:1001A8000009D8A4DAEF00F0DCEF00F0DEEF00F091
:1001B80047EF00F004EC05F04C0E1E18D8A4E7EF4A
:1001C80000F0E9EF00F03AEF01F0550E1F18D8A43F
:1001D800F0EF00F0F2EF00F03AEF01F04E0E2018C9
:1001E800D8A4F9EF00F0FBEF00F03AEF01F0410E70
:1001F8002118D8A402EF01F004EF01F03AEF01F062
:100208004C0E336E2C508BEC04F0010E336E2C50D8
:1002180001098BEC04F02C50BFEC03F00009D8A4C2
:1002280018EF01F01AEF01F01CEF01F047EF00F0B2
:10023800200E30EC04F00009D8A425EF01F027EFD8
:1002480001F029EF01F047EF00F0010E30EC04F067
:100258000009D8A432EF01F034EF01F036EF01F0D5
:1002680047EF00F004EC05F060EF01F0490E1E18AE
:10027800D8A441EF01F043EF01F047EF00F04E0E34
:100288001F18D8A44AEF01F04CEF01F047EF00F037
:10029800460E2018D8A453EF01F055EF01F047EFB0
:1002A80000F0490E336E2C508BEC04F021C033F073
:1002B8002C5001098BEC04F0FF0E1200000E396E71
:1002C800000E3B6E100E3C6E3C5017EC05F000091A
:1002D800D8B471EF01F073EF01F075EF01F03CC095
:1002E80039F0020E3C261E0E3C647DEF01F07FEFD4
:1002F80001F068EF01F0100E3C6E0DEF02F03C507B
:1003080017EC05F0376E3C50010917EC05F0386E14
:100318003C50BFEC03F00009D8A495EF01F097EF2B
:1003280001F099EF01F016EF02F0000E30EC04F046
:100338000009D8A4A2EF01F0A4EF01F0A6EF01F0A4
:1003480016EF02F004EC05F03C500109336E010E83
:1003580019EC02F00009D8A4B4EF01F0B6EF01F0EF
:10036800B8EF01F016EF02F025C022F0000E336E50
:10037800020E19EC02F00009D8A4C5EF01F0C7EF8E
:1003880001F0C9EF01F016EF02F025C023F0000ECE
:10039800336E030E19EC02F00009D8A4D6EF01F071
:1003A800D8EF01F0DAEF01F016EF02F025C024F0E3
:1003B8004C0E3718D8A4E3EF01F0E5EF01F0EEEFAB
:1003C80001F02350D8B4EBEF01F0EDEF01F0EEEFC0
:1003D80001F02268010E3A6E02EF02F03B2A210E6C
:1003E8003A24D96EDA6A000EDA22010E3B24E16E55
:1003F800E26A000EE222DFCFE7FF3A2A3A50385C81
:10040800D8B009EF02F00BEF02F0F2EF01F0020EA4
:100418003C263C50395CD8B014EF02F016EF02F0DD
:1004280083EF01F03BC001F01200366E8AEF02F054
:100438000E01978197B123EF02F025EF02F01EEF2E
:1004480002F033C092FE95B52CEF02F02EEF02F0C9
:1004580027EF02F097AD33EF02F035EF02F040EFEF
:1004680002F0978597B53BEF02F03DEF02F036EFCB
:1004780002F0000EA3EF02F0978797B746EF02F05D
:1004880048EF02F041EF02F092CE25F0979B978952
:1004980097B951EF02F053EF02F04CEF02F0FF0E64
:1004A800A3EF02F00E01978797B75DEF02F05FEFB9
:1004B80002F058EF02F092CE25F0979B978997B9F2
:1004C80068EF02F06AEF02F063EF02F053EF02F018
:1004D8000E01978797B773EF02F075EF02F06EEF92
:1004E80002F092CE25F0978B978997B97EEF02F0AC
:1004F80080EF02F079EF02F0978597B586EF02F06A
:1005080088EF02F081EF02F053EF02F03650346EBC
:10051800356A3550000AD8B494EF02F03DEF02F086
:100528003450010AD8B41CEF02F0030AD8B456EFCD
:1005380002F0010AD8B46CEF02F03DEF02F01200AD
:100548000E01CD91969CF9EF02F095B4AEEF02F052
:10055800B0EF02F0B4EF02F0010E276EB6EF02F032
:10056800020E276E020E2718D8A4BDEF02F0BFEFC7
:1005780002F0CCEF02F092CF26F0010E2824D96EBB
:10058800DA6A000EDA22DF50926E282ACEEF02F0E5
:1005980092CF26F0968812EF03F095A8D6EF02F0D6
:1005A800D8EF02F0DCEF02F0000E276E12EF03F036
:1005B80092CF28F0968812EF03F095A8E6EF02F0A4
:1005C800E8EF02F0EDEF02F0000E276E2E8412EF36
:1005D80003F0010E2824D96EDA6A000EDA22DF5001
:1005E800926E282A968812EF03F027502F6E306AF1
:1005F8003050000AD8B403EF03F012EF03F02F5085
:10060800000AD8B4A9EF02F0010AD8B4D1EF02F079
:10061800030AD8B4E1EF02F012EF03F012005BEC2A
:1006280003F025EC05F08FEC03F0DDEC04F02EAEC2
:1006380020EF03F022EF03F025EF03F031EC05F093
:100648002E9E2EAC2AEF03F02CEF03F02FEF03F0D1
:10065800E6EC03F02E9C2EAA34EF03F036EF03F0FD
:1006680039EF03F0A2EC04F02E9A2EA83EEF03F027
:1006780040EF03F043EF03F04FEC04F02E982EA662
:1006880048EF03F04AEF03F04DEF03F0B7EC04F046
:100698002E962EA452EF03F054EF03F01BEF03F055
:1006A80062EC01F02E941BEF03F037EF00F0550ECB
:1006B8000E01A06FAA0EA06FA091100EF76F0F0E7B
:1006C800F86F100EB86F110EB76F120EFF6F110E84
:1006D8000F01006F180E0E01906F190E8F6F550ED7
:1006E800A06FAA0EA06FA081000E836E000E846E0C
:1006F800000E856E000E866E000E0F01116F000E43
:10070800196F000E216F000E266F000E886E896823
:100718008A688B6812008FAC94EF03F096EF03F0B1
:100728009EEF03F0F9EC04F0CBEC04F00EEC05F0CE
:10073800A2EF03F00CEC04F0F9EC04F0000E346EB8
:10074800010E3424D96EDA6A000EDA2234C0DFFFD3
:10075800342A1D0E3418D8A4B4EF03F0B6EF03F012
:10076800A4EF03F04D0E1A6E4F0E1B6E440E1C6E56
:10077800580E1D6E1200336E0E01978197B1C7EFA8
:1007880003F0C9EF03F0C2EF03F033C092FE95B552
:10079800D0EF03F0D2EF03F0CBEF03F097ADD7EF34
:1007A80003F0D9EF03F0E4EF03F0978597B5DFEF97
:1007B80003F0E1EF03F0DAEF03F0000EE5EF03F0EA
:1007C800FF0E1200960E2A18D8B4EDEF03F0EFEFE3
:1007D80003F0F2EF03F02A2A0BEF04F02B2A060E9F
:1007E8002B18D8A4FAEF03F0FCEF03F00BEF04F09A
:1007F800000E2B6E83508324836E8350D8A407EF9A
:1008080004F009EF04F00BEF04F0010E836E120000
:100818008E508E24FF0A7E0B336E100E336017EF56
:1008280004F019EF04F01DEF04F0100E936E1FEFA3
:1008380004F033C093FF946896889650F00B06092D
:10084800966E979E959E959C9468988C989A0E01A2
:10085800CD91C581968A1200336E33C092FE0E0187
:1008680095B539EF04F03BEF04F033EF04F097ADA2
:1008780040EF04F042EF04F04DEF04F0978597B590
:1008880048EF04F04AEF04F043EF04F0000E4EEF97
:1008980004F0FF0E12006DEC04F00009D8A457EF25
:1008A80004F059EF04F05DEF04F0EE0E836E6CEF88
:1008B80004F039EC00F00009D8A465EF04F067EF04
:1008C80004F06AEF04F083686CEF04F02CC083FF37
:1008D8001200100E2D6E2D50BFEC03F0FF0AD8A4A5
:1008E80078EF04F07AEF04F07FEF04F004EC05F001
:1008F8002D508AEF04F0020E2D267F0E2D6487EF0F
:1009080004F089EF04F06FEF04F0000E1200346E6B
:10091800F29E34C07EFF7F6A33C080FF8184550E0B
:10092800826EAA0E826E818281B29DEF04F09FEFE3
:1009380004F098EF04F08192F28E12008FAAA7EFCC
:1009480004F0A9EF04F0ACEF04F02E88000E2A6E34
:100958008FA8B1EF04F0B3EF04F0B6EF04F02E86E1
:10096800000E2A6E12000F0E836E100E356E000EEA
:10097800336E35508BEC04F0352A220E3518D8A486
:10098800C8EF04F0CAEF04F0BBEF04F01200BF5048
:10099800F00B0109BF6E700EBD120F0EBD12FA0EDC
:1009A800BC6E000EBE6EC068BD8E0E01CE93C683AF
:1009B8001200000E0E01CB6F000ECC6F000ECD6F33
:1009C800000ECE6F000ECF6FF29AF28CF28E1200EC
:1009D80000EE01F02E0EEE6AE806FDE13D903D9234
:1009E800000EF86E000113EF03F0270E0E01936F4F
:1009F8009651F00B0809966F959F959D968B12005E
:100A08000E01978597B50BEF05F00DEF05F006EF92
:100A180005F01200300E0F011C6F000E1B6F0E0147
:100A2800CA99C2891200336E33C07EFF7F6A818003
:100A3800805012002E8A000E0F011A6F0E01CA99FB
:100A480012003F0E8116819412002E8E0E01CE9751
:0E0A580012002E8C0E01CE9312002E9E120064
:020000040020DA
:10000000FF0FFF0FFF0FFF0FFF0FFF0FFF0FFF0F80
:020000040030CA
:0C0000008CFF3FFF9FFFFFFFFFFFFFFF93
:00000001FF
