:020000040000FA
:0400000037EF00F0E6
:100008004482D9CF30F0DACF31F00E01CEA70FEF0E
:1000180000F011EF00F013EF00F036EC05F00E01E0
:10002800CEA319EF00F01BEF00F01DEF00F03AEC43
:1000380005F00E01CAA923EF00F025EF00F027EF25
:1000480000F02BEC05F00E01CDA12DEF00F02FEF05
:1000580000F031EF00F0B8EC02F031C0DAFF30C048
:10006800D9FF44921100A6EF04F0100E2B6E4AEF50
:1000780000F0020E2B261F0E2B6445EF00F047EF11
:1000880000F04AEF00F0000E61EF01F02B5024EC75
:1000980005F00009D8A453EF00F055EF00F03DEF4C
:1000A80000F02C50C3EC03F00009D8A45EEF00F078
:1000B80060EF00F062EF00F047EF00F03C0E34EC28
:1000C80004F00009D8A46BEF00F06DEF00F06FEFBB
:1000D80000F047EF00F011EC05F02C500109326EEA
:1000E800010E2DEC02F00009D8A47DEF00F07FEF9F
:1000F80000F081EF00F047EF00F025C01EF0000E81
:10010800326E020E2DEC02F00009D8A48EEF00F03A
:1001180090EF00F092EF00F047EF00F025C01FF0DD
:10012800000E326E020E2DEC02F00009D8A49FEFEB
:1001380000F0A1EF00F0A3EF00F047EF00F025C0BA
:1001480020F0000E326E030E2DEC02F00009D8A448
:10015800B0EF00F0B2EF00F0B4EF00F047EF00F0BE
:1001680025C021F02C50C3EC03F00009D8A4BFEF40
:1001780000F0C1EF00F0C3EF00F047EF00F0220EEF
:1001880034EC04F00009D8A4CCEF00F0CEEF00F076
:10019800D0EF00F047EF00F0D8902B3034EC04F0AB
:1001A8000009D8A4DAEF00F0DCEF00F0DEEF00F091
:1001B80047EF00F011EC05F04C0E1E18D8A4E7EF3D
:1001C80000F0E9EF00F03AEF01F0550E1F18D8A43F
:1001D800F0EF00F0F2EF00F03AEF01F04E0E2018C9
:1001E800D8A4F9EF00F0FBEF00F03AEF01F0410E70
:1001F8002118D8A402EF01F004EF01F03AEF01F062
:100208004C0E326E2B508FEC04F0010E326E2B50D8
:1002180001098FEC04F02B50C3EC03F00009D8A4BB
:1002280018EF01F01AEF01F01CEF01F047EF00F0B2
:10023800200E34EC04F00009D8A425EF01F027EFD4
:1002480001F029EF01F047EF00F0010E34EC04F063
:100258000009D8A432EF01F034EF01F036EF01F0D5
:1002680047EF00F011EC05F060EF01F0490E1E18A1
:10027800D8A441EF01F043EF01F047EF00F04E0E34
:100288001F18D8A44AEF01F04CEF01F047EF00F037
:10029800460E2018D8A453EF01F055EF01F047EFB0
:1002A80000F0490E326E2B508FEC04F021C032F072
:1002B8002B5001098FEC04F0FF0E1200000E3F6E68
:1002C800000E416E100E426E425024EC05F00009FB
:1002D800D8B471EF01F073EF01F075EF01F042C08F
:1002E8003FF0020E42261E0E42647DEF01F07FEFC2
:1002F80001F068EF01F0100E426E21EF02F042505B
:1003080024EC05F03D6E4250010924EC05F03E6EE8
:100318004250C3EC03F00009D8A495EF01F097EF21
:1003280001F099EF01F02AEF02F0000E34EC04F02E
:100338000009D8A4A2EF01F0A4EF01F0A6EF01F0A4
:100348002AEF02F011EC05F042500109326E010E5D
:100358002DEC02F00009D8A4B4EF01F0B6EF01F0DB
:10036800B8EF01F02AEF02F025C022F0000E326E3D
:10037800020E2DEC02F00009D8A4C5EF01F0C7EF7A
:1003880001F0C9EF01F02AEF02F025C023F0000EBA
:10039800326E030E2DEC02F00009D8A4D6EF01F05E
:1003A800D8EF01F0DAEF01F02AEF02F025C024F0CF
:1003B8004C0E3D18D8A4E3EF01F0E5EF01F0EEEFA5
:1003C80001F02350D8B4EBEF01F0EDEF01F0EEEFC0
:1003D80001F02268000E406E02EF02F0412A220E60
:1003E8004024D96EDA6A000EDA22010E4124E16E49
:1003F800E26A000EE222DFCFE7FF402A4050366E65
:10040800376AFF0E386EFF0E396E3E503A6E3B6A01
:1004180038503A2639503B2236503A5C3B50800AD5
:100428003C6E3750800A3C58D8B01DEF02F01FEFE1
:1004380002F0F2EF01F0020E422642503F5CD8B0C3
:1004480028EF02F02AEF02F083EF01F041C001F03B
:100458001200356E9EEF02F00E01978197B137EFCB
:1004680002F039EF02F032EF02F032C092FE95B599
:1004780040EF02F042EF02F03BEF02F097AD47EF9A
:1004880002F049EF02F054EF02F0978597B54FEF6D
:1004980002F051EF02F04AEF02F0000EB7EF02F05F
:1004A800978797B75AEF02F05CEF02F055EF02F02A
:1004B80092CE25F0979B978997B965EF02F067EF81
:1004C80002F060EF02F0FF0EB7EF02F00E0197871F
:1004D80097B771EF02F073EF02F06CEF02F092CE73
:1004E80025F0979B978997B97CEF02F07EEF02F091
:1004F80077EF02F067EF02F00E01978797B787EF63
:1005080002F089EF02F082EF02F092CE25F0978B8D
:10051800978997B992EF02F094EF02F08DEF02F00D
:10052800978597B59AEF02F09CEF02F095EF02F0ED
:1005380067EF02F03550336E346A3450000AD8B48D
:10054800A8EF02F051EF02F03350010AD8B430EFAF
:1005580002F0030AD8B46AEF02F0010AD8B480EFB7
:1005680002F051EF02F012000E01CD91969C02EFBD
:1005780003F092CF26F095B4C4EF02F0C6EF02F074
:10058800CAEF02F0010E276ECCEF02F0020E276EC2
:10059800020E2718D8A4D3EF02F0D5EF02F0DEEF51
:1005A80002F0010E2824D96EDA6A000EDA22DF5032
:1005B800926E282A96881BEF03F092CF26F026C069
:1005C80028F09688000E276E1BEF03F096A8EFEF31
:1005D80002F0F1EF02F0F6EF02F0000E276E2D8424
:1005E8001BEF03F0010E2824D96EDA6A000EDA2216
:1005F800DF50926E282A96881BEF03F027502E6E44
:100608002F6A2F50000AD8B40CEF03F01BEF03F049
:100618002E50000AD8B4BDEF02F0010AD8B4E1EFB9
:1006280002F0030AD8B4EAEF02F01BEF03F012005D
:1006380096EC03F032EC05F066EC03F0F7EC04F00E
:100648002DAE29EF03F02BEF03F02EEF03F03EEC75
:1006580005F02D9E2DAC33EF03F035EF03F038EFA6
:1006680003F0EAEC03F02D9C2DAA3DEF03F03FEFD9
:1006780003F042EF03F0BCEC04F02D9A2DA847EFED
:1006880003F049EF03F04CEF03F053EC04F02D981E
:100698002DA651EF03F053EF03F056EF03F0D1EC22
:1006A80004F02D962DA45BEF03F05DEF03F060EFEF
:1006B80003F062EC01F02D9493CF83FF24EF03F055
:1006C80037EF00F08FAC6BEF03F06DEF03F075EFD1
:1006D80003F006EC05F0E5EC04F01BEC05F079EF0F
:1006E80003F010EC04F006EC05F0000E336E010E7A
:1006F8003324D96EDA6A000EDA2233C0DFFF332AD8
:100708001D0E3318D8A48BEF03F08DEF03F07BEFA9
:1007180003F04D0E1A6E4F0E1B6E440E1C6E580ED3
:100728001D6E1200550E0E01A06FAA0EA06FA091AB
:10073800100EF76F0F0EF86F100EB86F110EB76F1F
:10074800120EF96F110EFA6F120E906F130E8F6F53
:10075800550EA06FAA0EA06FA081000E836E000E2A
:10076800846E000E856E000E0F01116F000E196F5A
:10077800000E216F000E886E89688A681200326E3A
:100788000E01978197B1CBEF03F0CDEF03F0C6EFE1
:1007980003F032C092FE95B5D4EF03F0D6EF03F024
:1007A800CFEF03F097ADDBEF03F0DDEF03F0E8EFF9
:1007B80003F0978597B5E3EF03F0E5EF03F0DEEF7D
:1007C80003F0000EE9EF03F0FF0E1200960E431837
:1007D800D8B4F1EF03F0F3EF03F0F6EF03F0432A98
:1007E8000FEF04F02A2A060E2A18D8A4FEEF03F009
:1007F80000EF04F00FEF04F0000E2A6E83508324FC
:10080800836E8350D8A40BEF04F00DEF04F00FEFC4
:1008180004F0010E836E12008E508E24FF0A7E0BA8
:10082800326E100E32601BEF04F01DEF04F021EF62
:1008380004F0100E936E23EF04F032C093FF946817
:1008480096889650F00B0609966E979E959E959CF5
:100858009468989C989A0E01CD91C581968A120049
:10086800326E32C092FE0E0195B53DEF04F03FEFB7
:1008780004F037EF04F097AD44EF04F046EF04F0CE
:1008880051EF04F0978597B54CEF04F04EEF04F064
:1008980047EF04F0000E52EF04F0FF0E120071EC67
:1008A80004F00009D8A45BEF04F05DEF04F061EFF9
:1008B80004F0EE0E836E70EF04F039EC00F00009DE
:1008C800D8A469EF04F06BEF04F06EEF04F08368CE
:1008D80070EF04F02BC083FF1200100E2C6E2C500A
:1008E800C3EC03F0FF0AD8A47CEF04F07EEF04F019
:1008F80083EF04F011EC05F02C508EEF04F0020E9B
:100908002C267F0E2C648BEF04F08DEF04F073EF30
:1009180004F0000E1200336EF29E33C07EFF7F6A31
:1009280032C080FF8184550E826EAA0E826E81824B
:1009380081B2A1EF04F0A3EF04F09CEF04F08194DE
:10094800F28E1200800EF66E0A0EF76E000EF86E2A
:100958000900F5CF43F000EE01F02D0EEE6AE8062F
:10096800FDE144904492000EF86E00011CEF03F084
:100978008FAAC1EF04F0C3EF04F0C6EF04F02D888E
:10098800000E436E8FA8CBEF04F0CDEF04F0D0EF4C
:1009980004F02D86000E436E12000F0E836E100EAB
:1009A800346E000E326E34508FEC04F0342A220E6E
:1009B8003418D8A4E2EF04F0E4EF04F0D5EF04F023
:1009C8001200BF50F00B0109BF6E700EBD120F0E62
:1009D800BD12FA0EBC6E000EBE6EC068BD8E0E0152
:1009E800CE93C6831200000E0E01CB6F000ECC6FA3
:1009F800000ECD6F000ECE6F000ECF6FF29AF28C04
:100A0800F28E1200270E0E01936F9651F00B080913
:100A1800966F958F959D968B12000E01978597B5C9
:100A280018EF05F01AEF05F013EF05F01200300E7D
:100A38000F011C6F000E1B6F0E01CA99C2891200AC
:100A4800326E32C07EFF7F6A8180805012002D8A0C
:100A5800000E0F011A6F0E01CA9912003F0E81167F
:100A6800819412002D8E0E01CE9712002D8C0E014E
:090A7800CE9312002D9E1200968F
:020000040020DA
:10000000FF0FFF0FFF0FFF0FFF0FFF0FFF0FFF0F80
:020000040030CA
:0C0000008CFFFFFC9FFFFFFFFFFFFFFFD6
:00000001FF
