:020000040000FA
:0400000006EF00F017
:020004000000FA
:080008001CEF01F00001006A89
:10001000016A026A036A046A056A066A076A086A6C
:10002000096A0A6A0B6A0C6A0D6A0E6A0F6A106A1C
:10003000116A126A136A146A156A166A176A186ACC
:10004000EA6A00EE20F00050E926000EEF6EE92A81
:10005000190EE96225EF00F0EA6A00EE20F019506F
:10006000E9264D0EEF6EEA6A00EE20F01A50E926FE
:100070004F0EEF6EEA6A00EE20F01B50E926440EA8
:10008000EF6EEA6A00EE20F01C50E926580EEF6E83
:10009000960E166E0E01550EA06FAA0EA06FA091BF
:1000A0000E01100EF76F0E010F0EF86F0E01100EFD
:1000B000B86F0E01110EB76F0E01120EF96F0E011F
:1000C000110EFA6F0E01120E906F0E01130E8F6F4C
:1000D0000E01550EA06FAA0EA06FA0810F01836ABA
:1000E000846A856A0F01116B196B216B0F01886A95
:1000F00089688A680F018FBC80EF00F08CEF00F0F8
:10010000EFEC00F094EC00F000EC01F00DEC01F0ED
:100110000F0183682BEF04F0EFEC00F0B1EC00F07E
:100120000DEC01F02BEF04F00F01FA0EBC6E0F0185
:10013000BD8EBD8CBD8ABD88BD86BD84BD82BD809F
:100140000F01BE9EBE9CBE9ABE90BE92BE94BE964D
:10015000BE980F01BF96BF94BF92BF800E01C683A9
:1001600012000F01FA0EB66E0F01B78EB78CB78A68
:10017000B788B786B784B782B7800F01B89EB89C9E
:10018000B89AB890B892B894B896B8980F01B99642
:10019000B994B992B9800E01C68712000F018E1C66
:1001A0000001196ED89019367E0E1916100E1964BA
:1001B000196E19500F01936E0F01968896969684CA
:1001C000968296900F01979E0F01959E959C0F0128
:1001D00094680E01C593C5810F01968A12000E0125
:1001E0009F0E936F0E0196879695969396910E01AA
:1001F000958F959D0E01968B0E01C597C5951200A2
:100200000F01300E1C6F0F01000E1B6F0E01C29B01
:10021000C289C291C293C29512000E01CA6B0E012F
:10022000CB6B0E01CC6B0E01CD6B0E01CE6BF28E43
:10023000F28C12002BEF04F00001006ED850016E1A
:100240000E01CEB335EC01F00E01CAB946EC01F057
:100250000E01CDB14DEC01F00E01CEB739EC01F03D
:1002600000010150D86E00501000CE930001028CA6
:100270001200CE970001030E186041EF01F0182A1A
:100280001200CEEC00F00F01B79E12000F011A6BA6
:100290000E01CA990001028A1200CD910F01969CAD
:1002A0000001000E0A645FEF01F0010E0A646BEFBB
:1002B00001F0020E0A6475EF01F07FEF01F00F010B
:1002C00092500001010E0A6E0F0195B487EC01F007
:1002D000968881EF01F00F01925000010C6E0F0122
:1002E000968800010A6A81EF01F00F0196B882EF4B
:1002F00001F087EC01F00F01968881EF01F081EFAA
:1003000001F0120000010A6A028481EF01F000018D
:10031000020E0A6EEA6A200EE96E00010C50E92610
:10032000EF500F01926E0C2A1200F29E0F017F6AAD
:10033000000106500F017E6E000105500F01806E16
:100340000F018184550E826EAA0E826E8182F28E1A
:1003500081B2A8EF01F0819412000F017F6A0001C1
:1003600006500F017E6E0F0181800F018050000149
:10037000056E12000E01978597B5BCEF01F0000CD9
:100380000E01978597B5C2EF01F012000E0197811B
:1003900097B1C8EF01F0000107500E01926F0E01F6
:1003A00095B5D0EF01F00E0197BDBAEF01F0FF0C4B
:1003B000000108500E01926F0E0195B5DDEF01F0BE
:1003C0000E0197BDBAEF01F0FF0CC6EC01F000087A
:1003D000D8B4BAEF01F00E01978797B7EDEF01F0AF
:1003E0000E0192510001096E0E01979B978997B9F2
:1003F000F7EF01F0FF0C0E01978797B7FDEF01F0C3
:100400000E0192510001096E0E01979B978997B9D1
:1004100007EF02F0FF0C0E01978797B70DEF02F080
:100420000E0192510001096E0E01978B978997B9C1
:1004300017EF02F0FF0C00010E0E076E0001072AF5
:10044000072A7F0E0760000CC6EC01F00008D8B444
:100450001EEF02F0C0EC01F0000107C00DF0FF0C30
:1004600000010E0E0E6E00010E2A0E2A1F0E0E60E7
:10047000000C0EC006F0ADEC01F0000E056233EF8B
:1004800002F00DC007F0C6EC01F00008D8B4BAEFD6
:1004900001F000013C0E086ED8EC01F00008D8B461
:1004A000BAEF01F0C0EC01F00780E5EC01F00008C4
:1004B000D8B4BAEF01F0EA6A00EE50F00050E92635
:1004C000000109C0EFFFFBEC01F00008D8B4BAEF5F
:1004D00001F0EA6A00EE50F00150E926000109C07F
:1004E000EFFFFBEC01F00008D8B4BAEF01F0EA6AC4
:1004F00000EE50F00250E926000109C0EFFF0BECBE
:1005000002F00008D8B4BAEF01F0EA6A00EE50F049
:100510000350E926000109C0EFFFC0EC01F007908D
:10052000C6EC01F00008D8B4BAEF01F00001220EC9
:10053000086ED8EC01F00008D8B4BAEF01F0000161
:10054000D8900E30086ED8EC01F00008D8B4BAEF9D
:1005500001F0C0EC01F0EA6A00EE50F00050E9262C
:100560004C0EEF62B6EF02F0BDEF02F0490EEF6203
:10057000BCEF02F0E8EF02F0000C00014C0E056E3B
:100580000EC006F095EC01F00001010E056E06129A
:1005900095EC01F00EC007F0C6EC01F00008D8B4ED
:1005A000BAEF01F00001200E086ED8EC01F000084F
:1005B000D8B4BAEF01F00001010E086ED8EC01F0DA
:1005C0000008D8B4BAEF01F0C0EC01F0FDEF02F082
:1005D0000001490E056E0EC006F095EC01F0000119
:1005E000EA6A00EE50F00350E926EF50056E010E66
:1005F000061295EC01F0FDEF02F0FF0C0296100ED2
:10060000136E056A040000011350066E132A95EC60
:1006100001F00001230E136202EF03F00F010F0E31
:10062000836E1200029C960E1664162A960E1660B1
:100630001BEC03F01200172A060E176021EC03F0E2
:100640001200176AD8908D34836E8D50D8B4838091
:100650001200029400010E0E0F6E136E106A00015C
:10066000132A132A1350066EADEC01F0000E05623A
:1006700013C00FF01E0E13622FEF03F00E0E136E59
:100680000001132A132A1350066EADEC01F005C0C9
:1006900011F0010E1310066EADEC01F005C012F062
:1006A00013C007F0C6EC01F00008D8B4BAEF01F0AF
:1006B0000001000E086ED8EC01F00008D8B4BAEFC3
:1006C00001F0C0EC01F000010780E5EC01F000084A
:1006D000D8B4BAEF01F0EA6A00EE60F00050E92603
:1006E000000109C0EFFFFBEC01F00008D8B4BAEF3D
:1006F00001F0EA6A00EE60F00150E926000109C04D
:10070000EFFF0BEC02F00008D8B4BAEF01F0EA6A90
:1007100000EE60F00250E926000109C0EFFFC0ECD6
:1007200001F0490E1162A5EF03F0C8EF03F00001DC
:1007300013500F6240EF03F0EA6A200EE96E0001E9
:100740001050EF6E0F01836EFF0CEA6A00EE60F04E
:100750000150E926000EEF62C0EC03F00001102A00
:10076000EA6A00EE60F00050E926EFCF14F0EA6A82
:1007700000EE20F01050E92614C0EFFF97EF03F0D1
:10078000EA6A00EE60F00050E926FF0EEF6E1200FC
:10079000D6EC03F00001010E1260E6EC03F000015C
:1007A000020E1260F6EC03F097EF03F0102AEA6AEB
:1007B00000EE60F00050E926EFCF14F0EA6A00EE98
:1007C00020F01050E92614C0EFFF1200102AEA6A48
:1007D00000EE60F00150E926EFCF14F0EA6A00EE77
:1007E00020F01050E92614C0EFFF1200102AEA6A28
:1007F00000EE60F00250E926EFCF14F0EA6A00EE56
:1008000020F01050E92614C0EFFF120002981BECF4
:1008100002F00008D8B417EF04F030EC02F0000842
:10082000D8B41BEF04F000010E50836E12000F01CC
:10083000EE0E836E12000F01CC0E836E1200029A30
:100840000F018FB802868FB8166A0F018FBA02881F
:100850008FBA166A1200000102BC12EC03F000010C
:1008600002BA1FEC04F0000102B806EC04F000012B
:1008700002B6FEEC02F0000102B429EC03F0040021
:040880002BEF04F066
:020000040030CA
:010000008C73
:01000100FFFF
:010002007F7E
:01000300FC00
:01000400E516
:01000500C733
:01000600FFFA
:01000700FFF9
:01000800FFF8
:01000A00FFF6
:01000B00FFF5
:00000001FF
